:020000040800F2
:10000000700D00209D0100088D1500088F15000857
:10001000991500089B1500089D15000800000000B8
:100020000000000000000000000000009F15000814
:10003000A115000800000000A3150008A515000880
:10004000B7010008B7010008B7010008B7010008B0
:10005000B7010008B7010008B7010008B7010008A0
:10006000B7010008B7010008B7010008B701000890
:10007000B7010008B7010008B7010008B701000880
:10008000B7010008B7010008B7010008B701000870
:10009000B7010008B7010008B7010008B701000860
:1000A000B7010008B7010008B7010008B701000850
:1000B000B7010008B7010008B7010008B701000840
:1000C000B7010008B7010008B7010008B701000830
:1000D000B70100086F140008B7010008B701000855
:1000E000B7010008B7010008B7010008B701000810
:1000F000B7010008B7010008B7010008B701000800
:10010000B7010008B7010008B7010008B7010008EF
:10011000B7010008B7010008B7010008B7010008DF
:10012000B7010008B7010008B7010008B7010008CF
:10013000B7010008B7010008B7010008B7010008BF
:10014000B7010008B7010008B7010008B7010008AF
:10015000B7010008B701000815150008B70100082D
:10016000B7010008B7010008B7010008B70100088F
:10017000B7010008B7010008B7010008B70100087F
:10018000B7010008B7010008DFF80CD002F09EF9B3
:100190000048004755150008700D002006488047AC
:1001A00006480047FEE7FEE7FEE7FEE7FEE7FEE75C
:1001B000FEE7FEE7FEE7FEE7631600088901000898
:1001C0002849084328490860704730B50F23C27892
:1001D00001780125FAB1244A126801F1E02102F404
:1001E000E062C2F5E062C2F30722C2F10404D34028
:1001F0004278A24084781C401443220181F80024F4
:10020000007800F01F018D404009800000F1E020DF
:10021000C0F8005130BD01F01F0085404809800042
:1002200000F1E020C0F8805130BD104A1140014378
:100230000D48001F016070470B4A121D002911680C
:1002400001D0014300E08143116070474FF0E0218D
:100250000428086903D020F004000861704740F0CA
:100260000400FAE70000FA050CED00E080FFFF1F34
:100270002DE9F043016821F00101016000210160D6
:1002800041608160C160016121214161B849B84A82
:100290003D251039904202D18D60BDE8F083B44A0B
:1002A0004FF474661832904201D18E60F5E7B04A7F
:1002B0004FF474173032904201D18F60EDE7AC4AB1
:1002C0004FF0746C4832904202D1C1F808C0E4E7A4
:1002D000A74BA84A6033984201D1CA60DDE7A44C1D
:1002E000A54B7834A04201D1CB60D6E7DFF88082FD
:1002F000A24C08F19008404501D1CC60CDE7DFF871
:1003000070824FF03D5908F1A808404502D1C1F86C
:100310000C90C2E79A49DFF868820839404501D15C
:100320000D60BAE7964D1835A84201D10E60B4E7CA
:10033000934D3035A84201D10F60AEE7904D48355E
:10034000A84202D1C1F800C0A7E78D4D8C496035A5
:10035000091FA84201D10A609FE7894A783290427A
:1003600001D10B6099E7864A9032904201D10C602E
:1003700093E7834AA83290428FD1C1F800908CE76E
:1003800030B503687F4ACC6813400A682243D1E93C
:1003900005452C432243CC6922430C6A22434C6A14
:1003A00022438C6A22434C6B22438C6B22431A43B8
:1003B0000260426922F00703D1E90B2422431A4369
:1003C00042610A6942604A6882608968C16030BDE2
:1003D0000021016041608160C16001614161816112
:1003E000C161016241628162C162016341638163F3
:1003F00070470029016802D041F0010101E021F0BD
:100400000101016070470029016802D041F40041F8
:1004100001E021F40041016070470029016802D029
:1004200041F0200101E021F02001016070474160AE
:100430007047406880B27047002A026802D042F4D8
:10044000002201E022F400220260016170470029CD
:10045000016802D041F4802101E021F48021016093
:1004600070470AB101617047C160704701460020C2
:100470000968090300D5012070470146002009687A
:10048000C90700D001207047406900F0380070476C
:1004900002463B4B00209A4202D2354A103A01E014
:1004A000374A103A8B0001D5526800E01268364B8B
:1004B0001A400A4200D001207047314A904202D2CD
:1004C0002B48103801E02E4810382F4A8B0001EAE3
:1004D000020101D5C1607047816070470B0607D5E6
:1004E000436912B143F0800301E023F080034361CC
:1004F000802908D0002A026801F01E0101D00A43B9
:1005000000E08A430260704730B51D4A00249042E3
:1005100002D2174A103A01E0194A103A1B4B19420D
:1005200005D01E2303EAD12503682B4002E0406971
:1005300000F08003880001D5506800E01068124A7E
:100540001040084201D003B10124204630BD0C4ABE
:10055000904202D20648103801E0094810380A4A91
:100560008B0001EA020101D5C160704781607047CC
:10057000106002403D000020400F002000003D20A0
:10058000106402403F801CF07D0F7D0F3C0F3C0F3C
:10059000774910B5884206D10121084600F099FA42
:1005A000002101205BE07349884206D1012102202D
:1005B00000F08FFA0021022051E06F49884206D1F5
:1005C0000121042000F085FA0021042047E06B4956
:1005D000884206D10121082000F07BFA0021082082
:1005E0003DE06749884206D10121102000F071FAF0
:1005F0000021102033E06349884206D101212020E8
:1006000000F067FA0021202029E05F49884206D1E6
:100610000121402000F05DFA002140201FE05B49ED
:10062000884206D10121802000F053FA0021802069
:1006300015E05749884202D1012184150AE0554945
:10064000884202D10121441504E0534988420AD16D
:1006500001210415204600F03CFA00212046BDE8A7
:10066000104000F036BA10BDF0B5002201274FF05F
:10067000030C0B6807FA02F52B40AB422CD106683D
:1006800053000CFA03F4A64306600E79D0F800E09C
:100690009E4046EA0E0606600E79012E01D0022E1B
:1006A00012D18668A64386604E79D0F808E09E4055
:1006B00046EA0E0686604668AE43466045688E7917
:1006C0009640B6B235434560C568A543C560CC7950
:1006D0009C40C3681C43C460521C102AC9D3F0BD9F
:1006E0004FF6FF7101600021017141718171C1718B
:1006F000704708B541F480320092C261C16100992F
:10070000C161C169C069009008BD0246002012693C
:100710000A4200D001207047006980B2704702464B
:10072000002052690A4200D001207047406980B21F
:10073000704701837047418370470AB10183704756
:10074000418370474161704742694A404261704746
:100750004B07DB0E9A40C90810B500EB8100016A17
:100760000F249C40A1430162016A1143016210BD44
:10077000000002400004024000080240000C024059
:10078000001002400014024000180240001C024009
:10079000002002400024024000280240F84801687E
:1007A00041F001010160F64A00210832116002683F
:1007B000F44B1A400260031DF34A1A60F04BF34AEF
:1007C00084331A60F04A103A1B1D1A60026822F442
:1007D00080220260EA480C300160181D01607047F9
:1007E000E7490022891C0A70087070470246002001
:1007F000510901290CD002290CD0E1497431096852
:1008000002F01F02012393400B4200D001207047E9
:10081000DB49F4E7DA497031F1E718B500204FF40D
:10082000A04400903120FFF7E1FF0099491C00919E
:10083000A14201D00028F5D03120FFF7D7FF0028D2
:1008400000D0012018BDCE4A116821F0F80141EA1C
:10085000C00010607047CE4908607047C849002248
:1008600070310A700A70012802D0042801D10520D5
:1008700008707047C7490860704741EA82115A08FA
:1008800010B5C54B029C03EB02421143014341EA00
:100890000460BB49091D086010BDBD49086670476A
:1008A000800140EA0170B649843108607047B84958
:1008B00088667047800140EA0160B14940EA0270F1
:1008C000883108607047B24908677047B049C8640A
:1008D0007047AB4B08331A68084322F0EC621043B0
:1008E00018607047A64B08331A68084322F0784214
:1008F000104318607047A24A0832116821F00301C2
:100900000143116070479E480830006800F00C00F9
:1009100070479B4A0832116821F0F00101431160D1
:100920007047974A0832116821F4E0510143116081
:100930007047934A0832116821F4604141EAC000CF
:100940001060704770B58E4B08331968934C11F0E6
:100950000C0104D06610042903D0082903D00460D8
:100960001BE0066019E0864A121D1168C1F380552C
:10097000116801F03F0115B1B6FBF1F101E0B4FBE4
:10098000F1F114681268C4F388146143C2F30142A0
:10099000521C5200B1FBF2F1016019680F2202EA09
:1009A00011117F4A545C0168E14041601C680725D1
:1009B00005EA9424145D21FA04F484601B6805EAB6
:1009C0005333D25CD140C16070BDC0F30121032913
:1009D00008D16B4B08331968724A21F4F8110240B0
:1009E0000A431A60664970310A68C0F30B0002437B
:1009F0000A60704767494439086070476549403963
:100A0000086070476249C1F85C0170475C4A8C32EB
:100A10001168401E21F01F01014311607047584AC0
:100A20008C3211686FF0FF0321F4F85103EB0020C2
:100A3000084310607047524A8C32116821F440110B
:100A40000143116070474E4A8C32116821F4400115
:100A50000143116070474A4A8C32116821F44031D9
:100A60000143116070475049C1F8E0017047444AA2
:100A700030320029116801D0014300E08143116048
:100A800070473F4A34320029116801D0014300E029
:100A90008143116070473A4A38320029116801D009
:100AA000014300E0814311607047354A403200291C
:100AB000116801D0014300E0814311607047304A62
:100AC00044320029116801D0014300E081431160E4
:100AD00070472B4A10320029116801D0014300E011
:100AE000814311607047264A14320029116801D0F1
:100AF000014300E0814311607047214A1832002908
:100B0000116801D0014300E08143116070471C4A25
:100B100020320029116801D0014300E081431160B7
:100B20007047174A24320029116801D0014300E0C0
:100B3000814311607047124A50320029116801D078
:100B4000014300E08143116070470D4A543200298F
:100B5000116801D0014300E0814311607047084AE9
:100B600058320029116801D0014300E0814311602F
:100B70007047034A60320029116817D0014316E01C
:100B800000380240FFFFF6EA103000240030002059
:100B900000004742800E47420000FFFF0024F4009F
:100BA00000000020FFFCFF0F00104742814311604E
:100BB0007047194A0029116801D0014300E08143C0
:100BC0001160704714490C310128086803D020F0E7
:100BD00008000860704740F00800FAE70E4A573AEC
:100BE0000029117801D0014300E081431170704762
:100BF00009481030016841F080710160704701467A
:100C0000054A0020583A12680A4200D00120704775
:100C1000014956390870704764380240CD4910B513
:100C2000884206D101211020FFF77BFF0021102010
:100C300020E0C949884202D101214C0429E0C7497A
:100C4000884202D101218C0423E0C549884202D1A7
:100C50000121CC041DE0C349884202D101210C05C9
:100C600017E0C149884209D101212020FFF759FF2F
:100C700000212020BDE81040FFF753BFBB49884248
:100C800002D101218C0704E0B94988420AD101212F
:100C900044052046FFF73BFF2046BDE810400021F9
:100CA000FFF735BF10BD7FB50446008A0D46C988E1
:100CB00020F4405001432182A08941F20C61884315
:100CC000A9882A8911436A8902431143A181A08A14
:100CD00020F44071A8890843A0826846FFF732FEDD
:100CE0009C48844202D0A048844201D1039800E08D
:100CF0000298A189090400EBC00101EB00102968EA
:100D000001D5490000E08900B0FBF1F06422B0FB9E
:100D1000F2F109010B096FF018056B4300EB83003A
:100D2000A3891D044FF0320306D503EBC000B0FBCE
:100D3000F2F000F0070005E003EB0010B0FBF2F06A
:100D400000F00F00084320817FBD4FF41651016071
:100D500000218180C18001810C2242818181704704
:100D600010B5028A4C8822F470630A8822438C886A
:100D7000C9880C4322431A43028210BD002101801E
:100D800041808180C18070470029818902D041F46F
:100D9000005101E021F4005181817047028B02F47F
:100DA0007F420283028B0A430283704700298189B4
:100DB00002D041F4004101E0C1F30E01818170478E
:100DC0000029818A02D041F4006101E021F4006130
:100DD00081827047C1F30801818070478088C0F329
:100DE00008007047028A22F00F020282028A0A4338
:100DF000028270470029818902D041F0020101E09E
:100E000021F0020181817047828922F4006282818F
:100E100082890A4382817047028A22F0200202827C
:100E2000028A0A43028270470029018A02D041F4F3
:100E3000804101E021F4804101827047818941F0C5
:100E40000101818170470029818A02D041F00801A7
:100E500001E021F0080181827047028BD2B2028347
:100E6000028B42EA0121018370470029818A02D066
:100E700041F0200101E021F020018182704700292A
:100E8000818A02D041F0100101E021F0100181823D
:100E90007047828A22F004028282828A0A43828216
:100EA00070470029818A02D041F0020101E021F05F
:100EB000020181827047002A828A01D00A4300E041
:100EC0008A438282704710B5C1F3421301F01F04B8
:100ED0000121A140012B07D0022B07D01430002A9A
:100EE000026805D00A4304E00C30F8E71030F6E75A
:100EF0008A43026010BD0246002012880A4200D0D8
:100F000001207047C9430180704770B501F01F058B
:100F100001260024C1F3421306FA05F2012B0FD07B
:100F2000022B0FD0838A4FEA11210088134206FA60
:100F300001F600EA060001D000B10124204670BD90
:100F40008389F0E7038AEEE70A0A01219140C94349
:100F500001807047001001400044004000480040FC
:100F6000004C004000500040001401400078004058
:100F7000007C004010B504466FF00400FFF766F9EE
:100F80002949E00800EB40020870C2EBC0104FF6A0
:100F9000FF7202EAC000488010BD23490978484327
:100FA0004FF0E021486100238B61086940F00100A7
:100FB00008610869C20701D0C003FAD5086920F0AA
:100FC000010008618B6170471749498848434FF019
:100FD000E021486100238B61086940F0010008614D
:100FE0000869C20701D0C003FAD5086920F00100E2
:100FF00008618B61704770B54FF40776B0FBF6F16E
:10100000CCB2B0FBF6F106FB110504E03046FFF769
:10101000DBFF641EE4B2002CF8D1002D03D028467B
:10102000BDE87040D0E770BD100000202DE9FC4104
:1010300001211720FFF71BFD00248DF804407C20C0
:10104000DFF87C808DF80740022500908DF8055070
:1010500069464046FFF708FB4EF20F00194E00901C
:1010600069463046FFF700FB1E20174F0090694687
:101070003846FFF7F9FA01208DF804008DF8064094
:10108000E0208DF8074000908DF8055069463846FD
:10109000FFF7EAFA3020009069463046FFF7E4FA9D
:1010A00040F60340009069460848FFF7DDFA4FF626
:1010B0008070009069464046FFF7D6FABDE8FC8193
:1010C00000100240000802400000024000040240FC
:1010D0007047FE490A885206FCD5C2B28A80704722
:1010E0002DE9F04FDFF8E4A3834697B0D046504691
:1010F000FFF794FD01210846FFF7B9FC01211020FC
:10110000FFF7DDFCDFF8C893072209214846FFF707
:101110001FFB07220A214846FFF71AFB02258DF81C
:10112000545003274FF4C0608DF85570002414907C
:101130008DF8564001268DF8576014A94846FFF7F0
:1011400093FAADF848400C20ADF84440ADF84A00A1
:10115000CDF840B0ADF84640ADF84C4010A940463F
:10116000FFF7A1FD25208DF83C008DF83D508DF84E
:101170003E608DF83F600FA8FFF727F844208DF8F8
:101180003C008DF83D508DF83E508DF83F600FA823
:10119000FFF71BF846208DF83C008DF83D508DF888
:1011A0003E708DF83F600FA8FFF70FF8012240F264
:1011B00024414046FFF787FE012240214046FFF7C9
:1011C0007AFE012280214046FFF775FE0121880545
:1011D000FFF74DFCDFF8FCB25846FFF749F8BE4870
:1011E00002A94FF0800881E811014FF48069CDE930
:1011F0000549079438040894CDE90940CDE90B4727
:10120000AD060AF10406CDE900560D94694658462C
:101210000E94FFF7B5F801215846FFF7EAF8AD4FF5
:1012200030373846FFF724F83846FFF726F900280C
:10123000FAD1A94800958030CDE9016040200390A3
:10124000CDE90484CDE9069480020894CDE90940F3
:101250000B940C940D94694638460E94FFF790F861
:10126000012210213846FFF739F900213846FFF7EF
:10127000C0F801215046FFF787FD17B0BDE8F08F99
:1012800070B50D460A4601469348803001F0F2F8E9
:10129000904C30342046FFF7F0F80028FAD1294668
:1012A0002046FFF7C4F82046BDE870400121FFF753
:1012B000A0B8F0B506464FF6FF7000244AF20105CB
:1012C0000DE0335D58400023C7074FEA500000D0BF
:1012D00068405B1C9BB2082BF6D3641CA4B28C4202
:1012E000EFD3002A03D1010A41EA002080B2F0BD09
:1012F000202801D300207047784901EBC00030F866
:10130000041C50F8080CFFF700BA20280ED2734ACC
:10131000803202EBC00010F8022C0838002A05D0F9
:1013200083880A4600681946FFF707BA70472DE917
:10133000FC41694D0446803501282FD0022C2BD169
:10134000012A29D10E783046FFF7D2FF074664A064
:101350000122D0E90010CDE900108DF804608DF86D
:1013600003408DF8057006216846FFF7A2FF5CA1D7
:10137000030AD1E9002166F3070167F30F2164F343
:101380001F6263F3174160F31F612A6069600821DF
:1013900051488030FFF774FFBDE8FC81022AFBD181
:1013A00008784978FFF7B1FF4FA00122D0E900107B
:1013B000CDE900108DF8034005216846FFF779FF5D
:1013C0004BA1030AD1E9002164F31F6263F30F21EB
:1013D00060F317412A6069600721D9E72DE9F05FC2
:1013E000DFF8F8808A4607460025A8F104083AE0AD
:1013F000785DFE2836D17E197078FE2832D1B47817
:1014000096F803903819427888F80020817888F897
:101410000110601C01F0CEF883463146621C01F0D9
:1014200029F80122611C5846FFF743FF98F8001085
:10143000B1EB102F08D098F80110814204D051462A
:10144000384601F030F80AE0E21E391D2A4801F062
:1014500011F8E41EE2B228494846FFF768FF5846F3
:1014600001F080F86D1C5545C2DBBDE8F09F70B5FA
:10147000164C40F224412046FFF747FD01281ED1BB
:101480002088A088134E00213046FEF7B2FF304678
:10149000FEF7CFFFC0F1800518493046FFF70DF881
:1014A00080213046FEF7C3FF01213046FEF7A1FF41
:1014B0002046FFF793FCE9B20748FFF78FFF40F2A1
:1014C00027712046FFF717FD012819E000100140A1
:1014D000000002408864024038010020180000200B
:1014E000FEFE050000000000FEFE020001000000FC
:1014F000FEFE040001000000380200200008002069
:1015000007D12046BDE87040002240F22661FFF777
:10151000DABC70BD70B50D4C4FF020552946204601
:10152000FEF7B6FF00280FD029462046FEF7C5FF7C
:1015300000212046FEF75DFFBDE87040012240F229
:1015400026610348FFF7BFBC70BD0000B8640240CD
:10155000001001404FF4A060FEF732FEA820FFF714
:1015600009FDFFF763FD4FF4E130FFF7B9FD064CCD
:10157000012220212046FFF7E0F8012240212046E9
:10158000FFF7DBF8FEE7000000000240704706A10D
:10159000002000F0FBFEFEE7FEE7FEE7FEE77047F7
:1015A000704770477047000048617264204661755B
:1015B0006C74204F63637572726564210A000000C9
:1015C0000CB50022544900920192086840F4803022
:1015D00008604FF4A043086800F4003001900098C0
:1015E000401C0090019810B900989842F3D1086807
:1015F000800334D50120019047484030026842F012
:10160000805202604548026842F44042026042480B
:10161000083002680260026842F400420260026818
:1016200042F4A0520260031F3D4A1A600A6842F069
:1016300080720A600A689201FCD53A4940F205724C
:101640000A60016821F003010160016841F00201B4
:1016500001600168C1F381010229FAD10CBD019238
:101660000CBD314810B5016841F4700101602A4891
:10167000016841F001010160274A00210832116030
:1016800002682A4B1A400260031D294A1A60026848
:1016900022F48022026020480C300160FFF790FFA6
:1016A00021494FF000608039086010BD70B51A4DB7
:1016B000083528681F4B204910F00C0004D05E103C
:1016C000042803D0082803D00B601BE00E6019E04B
:1016D000114A121D1068C0F38054106800F03F00DA
:1016E00014B1B6FBF0F001E0B3FBF0F01368126840
:1016F000C3F388135843C2F30142521C5200B0FB9B
:10170000F2F0086028680C4AC0F30310121D105C48
:101710000A68C2400A6070BD003802400070004094
:1017200008544007003C024088ED00E0FFFFF6FE51
:10173000103000240024F4001801002010B5F84CEB
:10174000A821204600F0AFFE032020616061F5A0D3
:10175000A06104F1A800E0614FF4806020620020E5
:10176000A0626062E062EFA1216604F595616166A6
:101770001021A1662067E0666067ED49C0F10F02A5
:101780008A5C2254401C1028F8D310BD2DE9F04784
:10179000C4681746894605464FF000082869A042EC
:1017A00001D9061B02E0A968201A0E1AA868761E45
:1017B000001BB04200D80646BE4200D33E466868D1
:1017C00032462044494600F055FEA868BF1B344409
:1017D000B044B144A04200D10024EC60002FDDD120
:1017E0004046BDE8F0872DE9F04104468846D4E93B
:1017F0000207C51BE168606816460844B54206D971
:10180000414600F037FEB819E060BDE8F0812A4695
:10181000414600F02FFE761B08EB0501324660685A
:1018200000F028FEE660F0E72DE9F0470F46BC49DE
:10183000044616460878532801D0FFF77FFFB849C1
:1018400004EB440001EBC005B846AC6AD5F824901F
:10185000002718354C4511D9A868071BB74200D39B
:10186000374668683A460119404600F003FEA8680A
:10187000F61B3C44B844A04200D10024A9EB04006C
:10188000B04200D206463EB1686832460119404671
:1018900000F0F0FD3744344407B12C613846A0E72E
:1018A0002DE9F0470F469E4904461646087853280E
:1018B00001D0FFF743FF9A4904EB440001EBC00558
:1018C000B846D5E91B94002760354C4511D9A86866
:1018D000071BB74200D3374668683A4601194046AD
:1018E00000F0C8FDA868F61B3C44B844A04200D1F3
:1018F0000024A9EB0400B04200D206463EB168685D
:1019000032460119404600F0B5FD3744344407B172
:101910002C61384665E710B5EFF31184202383F37B
:101920001188FFF781FFE1B281F3118810BD10B576
:10193000EFF31184202383F31188FFF7B1FFE1B2A5
:1019400081F3118810BD2DE9F0410F46744900EB79
:10195000400001EBC0041546D4E90901183488425F
:1019600002D1A068401E08E0216988422169A1EBEC
:101970000000F7D3A168401E084485420BD92169B5
:10198000281A08442061A06802E02169091A21612F
:1019900021698142F9D2D4E90201461A4FF00008C8
:1019A000E1686068AE42084407D92A46394600F02B
:1019B00061FDE0682844E06027E73246394600F0E0
:1019C00059FD3744C4F80C80AD1BA668A6F101068A
:1019D000E6D11AE72DE9F0410F46514900EB4000EE
:1019E00001EBC0041646A16A656AE0691834284410
:1019F000A94218D8A268531B5A1EB24201D33246DC
:101A000015E01144B14219D31D461A46394600F07B
:101A100031FD2B46761B04D0F9183246606800F081
:101A200029FDE66008E0491B491EB14206D339464C
:101A300000F020FDA819E0600120E6E60020E4E6C1
:101A400070B50E46364900EB400001EBC005144668
:101A5000686F603520B101280FD0022805D113E04E
:101A6000284600F020FBA04201D2002411E02246CB
:101A700031462846FFF7B7FE0BE0284600F013FB7F
:101A8000A042F4D20446F2E731462846FFF77EFE34
:101A90000446204670BD70B50E46214900EB40005B
:101AA00001EBC0051446E86A183520B101280FD0B3
:101AB000022805D113E0284600F0F5FAA04201D231
:101AC000002411E0224631462846FFF78CFE0BE049
:101AD000284600F0E8FAA042F4D20446F2E7314684
:101AE0002846FFF753FE0446204670BD2DE9F0411D
:101AF00007460B4815460E460078532801D0FFF7DD
:101B00001DFEEFF31184202080F311882A46314610
:101B10003846FFF795FFE1B281F3118875E60000C2
:101B2000B80200205465726D696E616C000000009F
:101B3000302600082DE9F0410746FB4815460E46C1
:101B40000078532801D0FFF7F9FDEFF3118420202E
:101B500080F311882A4631463846FFF79CFFE1B2F0
:101B600081F3118851E670B505460C46084600F031
:101B7000A5FC024621462846BDE87040DAE7EA4A5D
:101B800000EB400010B502EBC000426A046A134645
:101B90001830521C944200D100220469944204D0AF
:101BA0004468E154C260012010BD002010BD70B532
:101BB0000546DD480C460078532801D0FFF7BEFDEE
:101BC000EFF31181202080F31188D74A05EB4500FF
:101BD00002EBC000426A056A13461830521C954257
:101BE00000D100220569954204D04568EC54C260DA
:101BF000012000E00020C9B281F3118870BD70B5EA
:101C00000546C9480C460078532801D0FFF796FDD9
:101C1000EFF31183202080F31188C34905EB4500C1
:101C200001EBC000426A016A15461830521C91420D
:101C300000D100224169022902D101699142FCD000
:101C40000169914204D041684C55C260012000E016
:101C50000020D9B281F3118870BD08B50122694610
:101C60000020FFF764FE012802D04FF0FF3008BDCE
:101C70009DF8000008BD10B5FFF7EFFF0028FBDB63
:101C800010BDA94810B50078532801D0FFF756FDC4
:101C9000A548016FC06E884201D0012010BD002010
:101CA00010BDA14900EB400001EBC000C16E006F08
:101CB000081A70479C4900EB400001EBC000816AA4
:101CC000406A401A70472DE9F041074696481C4685
:101CD000154600780E46532801D0FFF72FFDEFF38D
:101CE0001182202080F311888F49002000EB4003EF
:101CF00001EBC3035B6E1BB14B69401C8342F5DCF7
:101D00004B6983420BDD00EB400301EBC3010F661F
:101D10004E668D6600230B67CB664C6701E04FF083
:101D2000FF30D1B281F311886FE52DE9F04107460C
:101D30007D481C46154600780E46532801D0FFF713
:101D4000FDFCEFF31182202080F3118876490020FA
:101D500000EB400301EBC303DB691BB10B69401CC3
:101D60008342F5DC0B6983420BDD00EB400301EBA2
:101D7000C3018F61CE610D6200238B624B62CC6226
:101D800001E04FF0FF30D1B281F311883DE52DE93C
:101D9000F04104466448DDF818801D460078164678
:101DA0000F46532801D0FFF7C9FC5F48032C17D218
:101DB000EFF31181202282F3118804EB440200EB3F
:101DC000C20018302CB107604660856000220261B5
:101DD000C260C0F81480C8B280F31188002014E5F6
:101DE0004FF0FF3011E52DE9F04104464E48DDF893
:101DF00018801D46007816460F46532801D0FFF77D
:101E00009DFC4948032C17D2EFF31181202282F365
:101E1000118804EB440200EBC20060302CB1076073
:101E20004660856000220261C260C0F81480C8B2BA
:101E300080F311880020E8E44FF0FF30E5E470B54E
:101E4000044639480D460078532801D0FFF776FC48
:101E50003548032C0ED2EFF31182202181F3118833
:101E600004EB440100EBC1008561D0B280F311881E
:101E7000002070BD4FF0FF3070BD70B504462A4899
:101E80000D460078532801D0FFF758FC2648032C54
:101E90000ED2EFF31182202181F3118804EB44016B
:101EA00000EBC1000566D0B280F31188002070BD40
:101EB0004FF0FF3070BD70B504461B480D460078EA
:101EC000532801D0FFF73AFC1748032C0ED2EFF34A
:101ED0001182202181F3118804EB440100EBC10041
:101EE000C562D0B280F31188002070BD4FF0FF3082
:101EF00070BD70B504460C480D460078532801D0DB
:101F0000FFF71CFC0848032C10D2EFF311822021AC
:101F100081F3118804EB440100EBC1004567D0B2A6
:101F200080F31188002070BDB80200204FF0FF3010
:101F3000F9E703E42DE9F8430446604800785328A4
:101F400001D0FFF7FBFBFF2000258DF800004FF0CC
:101F5000FF39102C2BD25A48584E005D8DF80100E5
:101F60001836EFF31187202080F31188307DDFF8D9
:101F7000548100F0030002280CD0304600F093F8A2
:101F800002280FD388F80040022269463046FFF746
:101F90002AFC08E088F80040022269463046FFF734
:101FA000F5FB00E04D46F8B280F3118800E04D46A5
:101FB0002846BDE8F8832DE9F05F82463F488B460E
:101FC0000078532801D0FFF7B9FB4FF0FF37BAF183
:101FD000100F40D2DFF8E490584609F1180900F0DC
:101FE0006DFA0546EFF31188202080F311884846EA
:101FF00000F059F8044699F81400324E10F003002E
:1020000004D0012807D0022807D11FE0281D8442F0
:102010001CD2002415E0042C01D23C4611E05146AC
:10202000484600F033F8201F854200D305462A4673
:1020300059464846FFF7AAFB04463178484600F067
:1020400025F808F0FF0080F3118805E05146484666
:1020500000F01CF8EBE73C462046BDE8F09F17492E
:1020600000EB400001EBC000183000F01CB8134931
:1020700000EB400001EBC002916A506A814201D836
:10208000401A7047126A401A101A704708B5FF22AA
:102090008DF800200A4A515C8DF801100222694631
:1020A000FFF774FB08BD0269C1688A4203D88068E3
:1020B000401A104400E0501A401E7047B802002039
:1020C000202600082C01002010B50446D4E9013078
:1020D000421C934205D323681954A260E068401C57
:1020E000E060D4E90102824209D121682069FFF74A
:1020F00021FDA168884203D04FF0FF30E06010BDA1
:102100000020A06010BD2DE9F84F8246DDE90A4BA2
:10211000012599461746884608462E4602E0B0FB40
:10212000F7F0761CB842FAD2B14500D94E465FEAC4
:10213000CB7017D1B4B15FEA8B7002D5B9F1000F43
:1021400002D0202000900BE03020FBE75046641EB8
:102150000099FFF7B9FFDAF80C00002835DB0CB165
:10216000A642F3D3DAF80C0000282EDBB9F1010FF8
:1021700002D9A9F1010903E0B8FBF5F0B84201D397
:102180007D43F3E7DFF8E092B8FBF5F000FB15883C
:1021900019F800105046FFF797FFDAF80C000028F6
:1021A00003DBB5FBF7F5002DEED15FEACB700CD069
:1021B000002C0AD0A64208D220215046641EFFF708
:1021C00083FFDAF80C000028F2DABDE8F88F2DE979
:1021D000F04798B0824607A8029040204FF00009CF
:1021E0000390CDF81090CDE9059A15460C46484667
:1021F00014F8011B002975D0252908D002A8FFF783
:1022000063FF05980028F3DA18B0BDE8F0870020D6
:102210000122217823291ED02B2919D02D2902D063
:10222000302908D102E040F0010001E040F0020056
:10223000641C002AEDD100222178A1F130030A2B81
:102240000CD202EB820201EB4202303A641CF3E74B
:1022500040F00400ECE740F00800E9E721784FF097
:10226000000846462E2919D114F8011F2A2907D142
:1022700029684FF001080B1D2B60641C0E680DE0EF
:102280002178A1F130030A2B08D206EB860301EB7B
:102290004306641C4FF00108303EF1E721786C29B9
:1022A0000DD068290BD0702957D00BDC252914D00C
:1022B00058292DD063290CD0642911D113E014F8CA
:1022C000011FECE773292FD0752918D0782907D181
:1022D0001EE02868011D2960017802A8FFF7F4FEBE
:1022E000641C8EE743E029680B1D2B600968CDE96B
:1022F000002033460A2202A800F053F8F0E72968CC
:102300000B1D2B600968CDE9002033460A2207E047
:1023100029680B1D2B600968CDE90020334624E0B5
:1023200002A8FFF7F0FEDBE72868011D29600768B7
:1023300017B94EA74FF0000817F8011B0029CFD09E
:10234000B8F1000F01D0002ECAD002A8FFF7BCFEE2
:102350000598761E0028EFDAC2E72868011D29607B
:1023600008220168CDE9002913461022D8E7002889
:102370007FF74AAF049820B1024607A95046FFF7FD
:10238000D9FBDDE90410084405903DE70FB408B51A
:1023900004A900916A460399FFF719FF01B05DF89F
:1023A00014FB2DE9FC5F0E008046DDE90C47C6F109
:1023B000000099469246834600D40846012502E073
:1023C00090FBFAF06D1C5045FADAA94500D94D464C
:1023D00024B1002E01DB780700D5641EB80702D5B2
:1023E000B9F1000F0FD0F8070DD164B1A5420AD2A0
:1023F00020214046641EFFF767FED8F80C00002835
:10240000F3DABDE8FC9FD8F80C000028F9DB002EB9
:1024100002DA5E462D2102E0780707D52B214046DF
:10242000FFF752FED8F80C000028EADB07F00300A3
:1024300002280FD1B9F1000F0CD15CB1A54209D22D
:1024400030214046641EFFF73FFED8F80C000028FC
:10245000F3DAD6E7CDE900474B46524631464046CF
:10246000FFF751FECDE7000041260008284E554CED
:102470004C29000040EA01039B0703D009E008C98A
:10248000121F08C0042AFAD203E011F8013B00F839
:10249000013B521EF9D27047D2B201E000F8012B85
:1024A000491EFBD270470022F6E710B513460A46D4
:1024B00004461946FFF7F0FF204610BD421C10F8F5
:1024C000011B0029FBD1801A70470000064C074D04
:1024D00006E0E06840F0010394E8070098471034F4
:1024E000AC42F6D3FDF754FE5426000874260008CB
:1024F00070B58C1810F8015B15F0070301D110F8C6
:10250000013B2A1106D110F8012B03E010F8016BF2
:1025100001F8016B5B1EF9D12B0705D40023521E75
:102520000DD401F8013BFAE710F8013BCB1A921CDD
:1025300003E013F8015B01F8015B521EF9D5A142DB
:10254000D8D3002070BD02E008C8121F08C1002ABD
:10255000FAD170477047002001E001C1121F002A24
:10256000FBD1704710B5002821D0114B0022001F6D
:10257000196803E0814203D80A4649680029F9D165
:1025800052B11368841A9C4204D100681844106048
:10259000104602E0506000E0186039B102680B1A82
:1025A000934203D10B681A4402604968416010BD30
:1025B00030010020F0B50B30154D20F0070100244C
:1025C000144A0FE003688B420BD38B4205D95E1A85
:1025D00043184768C3E9006700E04368136002C01E
:1025E00004E0021D10680028ECD12046002802D12A
:1025F000286808B10020F0BD064A07481060074A65
:10260000121A22F00702C0E9002401202860D7E74F
:1026100034010020300100207407002070090020E0
:102620003031323334353637383941424344454608
:1026300000000000000054545220524547474553C3
:10264000003031323334353637383941424344452E
:102650004600000074260008000000203801000039
:10266000F02400080827000838010020380C00007A
:1026700056250008412D01020304049506070809A8
:102680005D10024004085A08085A10084220450408
:102690000240401408024029112908291129084A3A
:1026A00080085A01205A0208395019083950115926
:1026B0001819083918190869183968190812801981
:1026C0004219305A10082A200819785A01082A029B
:1026D00008199039281908115A01085A02085A0491
:1026E000085A08085A10085A200829A229084A80BE
:1026F00050393029082930847A030AC009010203BD
:082700000406070809000000AF
:040000050800018965
:00000001FF
